{
  "contractName": "Insurance_purchase",
  "abi": [
    {
      "constant": true,
      "inputs": [],
      "name": "seller",
      "outputs": [
        {
          "name": "",
          "type": "address"
        }
      ],
      "payable": false,
      "stateMutability": "view",
      "type": "function",
      "signature": "0x08551a53"
    },
    {
      "constant": true,
      "inputs": [],
      "name": "value",
      "outputs": [
        {
          "name": "",
          "type": "uint256"
        }
      ],
      "payable": false,
      "stateMutability": "view",
      "type": "function",
      "signature": "0x3fa4f245"
    },
    {
      "constant": true,
      "inputs": [
        {
          "name": "",
          "type": "uint256"
        }
      ],
      "name": "insurances",
      "outputs": [
        {
          "name": "insurance_id",
          "type": "uint256"
        },
        {
          "name": "insurance_name",
          "type": "bytes32"
        },
        {
          "name": "purchase_amount",
          "type": "uint256"
        },
        {
          "name": "compensation",
          "type": "uint256"
        }
      ],
      "payable": false,
      "stateMutability": "view",
      "type": "function",
      "signature": "0x59fb49f9"
    },
    {
      "constant": true,
      "inputs": [],
      "name": "buyer",
      "outputs": [
        {
          "name": "",
          "type": "address"
        }
      ],
      "payable": false,
      "stateMutability": "view",
      "type": "function",
      "signature": "0x7150d8ae"
    },
    {
      "constant": true,
      "inputs": [],
      "name": "hospital",
      "outputs": [
        {
          "name": "",
          "type": "address"
        }
      ],
      "payable": false,
      "stateMutability": "view",
      "type": "function",
      "signature": "0xaa2fedde"
    },
    {
      "constant": true,
      "inputs": [],
      "name": "state",
      "outputs": [
        {
          "name": "",
          "type": "uint8"
        }
      ],
      "payable": false,
      "stateMutability": "view",
      "type": "function",
      "signature": "0xc19d93fb"
    },
    {
      "inputs": [],
      "payable": true,
      "stateMutability": "payable",
      "type": "constructor",
      "signature": "constructor"
    },
    {
      "anonymous": false,
      "inputs": [],
      "name": "Buy_insurance",
      "type": "event",
      "signature": "0x924768e9e311ba287359b1b62edee2d2369c505f62f3c1ca774906dc0b923bb8"
    },
    {
      "anonymous": false,
      "inputs": [],
      "name": "Get_compensation",
      "type": "event",
      "signature": "0x1248208164c93ff473e341ba4e02abaaa336d70aede2090fb8066061e73a6b81"
    },
    {
      "anonymous": false,
      "inputs": [],
      "name": "Release_compensation",
      "type": "event",
      "signature": "0x7aa3459e565b4b03e6bcba8e0378499104dd2b57a8c2b991f44dfa2f8802a5f3"
    },
    {
      "constant": false,
      "inputs": [
        {
          "name": "_address",
          "type": "address"
        }
      ],
      "name": "ComfirmCompany",
      "outputs": [],
      "payable": false,
      "stateMutability": "nonpayable",
      "type": "function",
      "signature": "0x9c2d76f6"
    },
    {
      "constant": false,
      "inputs": [
        {
          "name": "_insurance_id",
          "type": "uint256"
        },
        {
          "name": "_insurance_name",
          "type": "bytes32"
        },
        {
          "name": "_purchase_amount",
          "type": "uint256"
        },
        {
          "name": "_compensation",
          "type": "uint256"
        }
      ],
      "name": "CreateInsurance",
      "outputs": [],
      "payable": false,
      "stateMutability": "nonpayable",
      "type": "function",
      "signature": "0x5f7fe488"
    },
    {
      "constant": false,
      "inputs": [
        {
          "name": "_hospital",
          "type": "address"
        }
      ],
      "name": "ConfirmHospital",
      "outputs": [],
      "payable": false,
      "stateMutability": "nonpayable",
      "type": "function",
      "signature": "0x5822edd9"
    },
    {
      "constant": true,
      "inputs": [
        {
          "name": "_insurance_id",
          "type": "uint256"
        }
      ],
      "name": "GetInsurance",
      "outputs": [
        {
          "name": "insurance_name",
          "type": "bytes32"
        },
        {
          "name": "purchase_amount",
          "type": "uint256"
        },
        {
          "name": "compensation",
          "type": "uint256"
        }
      ],
      "payable": false,
      "stateMutability": "view",
      "type": "function",
      "signature": "0xff553e81"
    },
    {
      "constant": false,
      "inputs": [
        {
          "name": "_buyer",
          "type": "address"
        }
      ],
      "name": "ExpiredInsurance",
      "outputs": [
        {
          "name": "",
          "type": "bool"
        }
      ],
      "payable": false,
      "stateMutability": "nonpayable",
      "type": "function",
      "signature": "0xcea54bfa"
    },
    {
      "constant": false,
      "inputs": [
        {
          "name": "_insurance_id",
          "type": "uint256"
        }
      ],
      "name": "BuyInsurance",
      "outputs": [
        {
          "name": "add",
          "type": "address"
        }
      ],
      "payable": true,
      "stateMutability": "payable",
      "type": "function",
      "signature": "0xba6898a2"
    },
    {
      "constant": false,
      "inputs": [
        {
          "name": "_insurance_id",
          "type": "uint256"
        }
      ],
      "name": "ReturnInsurance",
      "outputs": [
        {
          "name": "",
          "type": "bool"
        }
      ],
      "payable": true,
      "stateMutability": "payable",
      "type": "function",
      "signature": "0x4d3e3461"
    },
    {
      "constant": false,
      "inputs": [
        {
          "name": "patient",
          "type": "address"
        }
      ],
      "name": "GetCompensation",
      "outputs": [],
      "payable": true,
      "stateMutability": "payable",
      "type": "function",
      "signature": "0xb5ac2853"
    }
  ],
  "bytecode": "0x608060405233600160006101000a81548173ffffffffffffffffffffffffffffffffffffffff021916908373ffffffffffffffffffffffffffffffffffffffff16021790555061182c806100546000396000f3fe6080604052600436106100d0576000357c0100000000000000000000000000000000000000000000000000000000900463ffffffff16806308551a53146100d55780633fa4f2451461012c5780634d3e3461146101575780635822edd91461019d57806359fb49f9146101ee5780635f7fe488146102525780637150d8ae146102ab5780639c2d76f614610302578063aa2fedde14610353578063b5ac2853146103aa578063ba6898a2146103ee578063c19d93fb1461045c578063cea54bfa14610495578063ff553e81146104fe575b600080fd5b3480156100e157600080fd5b506100ea61055b565b604051808273ffffffffffffffffffffffffffffffffffffffff1673ffffffffffffffffffffffffffffffffffffffff16815260200191505060405180910390f35b34801561013857600080fd5b50610141610581565b6040518082815260200191505060405180910390f35b6101836004803603602081101561016d57600080fd5b8101908080359060200190929190505050610587565b604051808215151515815260200191505060405180910390f35b3480156101a957600080fd5b506101ec600480360360208110156101c057600080fd5b81019080803573ffffffffffffffffffffffffffffffffffffffff1690602001909291905050506109fa565b005b3480156101fa57600080fd5b506102276004803603602081101561021157600080fd5b8101908080359060200190929190505050610b03565b6040518085815260200184815260200183815260200182815260200194505050505060405180910390f35b34801561025e57600080fd5b506102a96004803603608081101561027557600080fd5b8101908080359060200190929190803590602001909291908035906020019092919080359060200190929190505050610b42565b005b3480156102b757600080fd5b506102c0610d40565b604051808273ffffffffffffffffffffffffffffffffffffffff1673ffffffffffffffffffffffffffffffffffffffff16815260200191505060405180910390f35b34801561030e57600080fd5b506103516004803603602081101561032557600080fd5b81019080803573ffffffffffffffffffffffffffffffffffffffff169060200190929190505050610d66565b005b34801561035f57600080fd5b50610368610daa565b604051808273ffffffffffffffffffffffffffffffffffffffff1673ffffffffffffffffffffffffffffffffffffffff16815260200191505060405180910390f35b6103ec600480360360208110156103c057600080fd5b81019080803573ffffffffffffffffffffffffffffffffffffffff169060200190929190505050610dd0565b005b61041a6004803603602081101561040457600080fd5b8101908080359060200190929190505050611210565b604051808273ffffffffffffffffffffffffffffffffffffffff1673ffffffffffffffffffffffffffffffffffffffff16815260200191505060405180910390f35b34801561046857600080fd5b5061047161148e565b6040518082600281111561048157fe5b60ff16815260200191505060405180910390f35b3480156104a157600080fd5b506104e4600480360360208110156104b857600080fd5b81019080803573ffffffffffffffffffffffffffffffffffffffff1690602001909291905050506114a1565b604051808215151515815260200191505060405180910390f35b34801561050a57600080fd5b506105376004803603602081101561052157600080fd5b81019080803590602001909291905050506116bf565b60405180848152602001838152602001828152602001935050505060405180910390f35b600160009054906101000a900473ffffffffffffffffffffffffffffffffffffffff1681565b60005481565b6000600160009054906101000a900473ffffffffffffffffffffffffffffffffffffffff1673ffffffffffffffffffffffffffffffffffffffff163373ffffffffffffffffffffffffffffffffffffffff16141580156106355750600360009054906101000a900473ffffffffffffffffffffffffffffffffffffffff1673ffffffffffffffffffffffffffffffffffffffff163373ffffffffffffffffffffffffffffffffffffffff1614155b15156106a9576040517f08c379a00000000000000000000000000000000000000000000000000000000081526004018080602001828103825260198152602001807f4f6e6c792062757965722063616e2063616c6c20746869732e0000000000000081525060200191505060405180910390fd5b6000600160048054905001905060008090505b60048054905081101561070257836004828154811015156106d957fe5b90600052602060002090600402016000015414156106f5578091505b80806001019150506106bc565b506001600480549050018114151515610783576040517f08c379a000000000000000000000000000000000000000000000000000000000815260040180806020018281038252601f8152602001807f5468697320696e737572616e636520646f6573206e6f7420657869737465640081525060200191505060405180910390fd5b8260066000600260009054906101000a900473ffffffffffffffffffffffffffffffffffffffff1673ffffffffffffffffffffffffffffffffffffffff1673ffffffffffffffffffffffffffffffffffffffff16815260200190815260200160002060000154141515610884576040517f08c379a00000000000000000000000000000000000000000000000000000000081526004018080602001828103825260238152602001807f546865206275796572206469646e277420627579207468697320696e7375726181526020017f6e6365000000000000000000000000000000000000000000000000000000000081525060400191505060405180910390fd5b8260066000600260009054906101000a900473ffffffffffffffffffffffffffffffffffffffff1673ffffffffffffffffffffffffffffffffffffffff1673ffffffffffffffffffffffffffffffffffffffff1681526020019081526020016000206000015414156109ef576000600660003373ffffffffffffffffffffffffffffffffffffffff1673ffffffffffffffffffffffffffffffffffffffff16815260200190815260200160002060000181905550600260009054906101000a900473ffffffffffffffffffffffffffffffffffffffff1673ffffffffffffffffffffffffffffffffffffffff166108fc60048381548110151561098357fe5b9060005260206000209060040201600201549081150290604051600060405180830381858888f193505050501580156109c0573d6000803e3d6000fd5b506002600760006101000a81548160ff021916908360028111156109e057fe5b021790555060019150506109f5565b60009150505b919050565b3373ffffffffffffffffffffffffffffffffffffffff16600160009054906101000a900473ffffffffffffffffffffffffffffffffffffffff1673ffffffffffffffffffffffffffffffffffffffff16141515610abf576040517f08c379a000000000000000000000000000000000000000000000000000000000815260040180806020018281038252601a8152602001807f4f6e6c792073656c6c65722063616e2063616c6c20746869732e00000000000081525060200191505060405180910390fd5b80600360006101000a81548173ffffffffffffffffffffffffffffffffffffffff021916908373ffffffffffffffffffffffffffffffffffffffff16021790555050565b600481815481101515610b1257fe5b90600052602060002090600402016000915090508060000154908060010154908060020154908060030154905084565b3373ffffffffffffffffffffffffffffffffffffffff16600160009054906101000a900473ffffffffffffffffffffffffffffffffffffffff1673ffffffffffffffffffffffffffffffffffffffff16141515610c07576040517f08c379a000000000000000000000000000000000000000000000000000000000815260040180806020018281038252601a8152602001807f4f6e6c792073656c6c65722063616e2063616c6c20746869732e00000000000081525060200191505060405180910390fd5b60008090505b600480549050811015610cbf57600481815481101515610c2957fe5b9060005260206000209060040201600001548514151515610cb2576040517f08c379a000000000000000000000000000000000000000000000000000000000815260040180806020018281038252601d8152602001807f54686520496e737572616e63655f69642068617320657869737465642000000081525060200191505060405180910390fd5b8080600101915050610c0d565b50600460806040519081016040528086815260200185815260200184815260200183815250908060018154018082558091505090600182039060005260206000209060040201600090919290919091506000820151816000015560208201518160010155604082015181600201556060820151816003015550505050505050565b600260009054906101000a900473ffffffffffffffffffffffffffffffffffffffff1681565b80600160006101000a81548173ffffffffffffffffffffffffffffffffffffffff021916908373ffffffffffffffffffffffffffffffffffffffff16021790555050565b600360009054906101000a900473ffffffffffffffffffffffffffffffffffffffff1681565b600360009054906101000a900473ffffffffffffffffffffffffffffffffffffffff1673ffffffffffffffffffffffffffffffffffffffff163373ffffffffffffffffffffffffffffffffffffffff16141515610e95576040517f08c379a000000000000000000000000000000000000000000000000000000000815260040180806020018281038252601c8152602001807f4f6e6c7920686f73706974616c2063616e2063616c6c20746869732e0000000081525060200191505060405180910390fd5b6001806002811115610ea357fe5b600760009054906101000a900460ff166002811115610ebe57fe5b141515610f33576040517f08c379a000000000000000000000000000000000000000000000000000000000815260040180806020018281038252600e8152602001807f496e76616c69642073746174652e00000000000000000000000000000000000081525060200191505060405180910390fd5b7f1248208164c93ff473e341ba4e02abaaa336d70aede2090fb8066061e73a6b8160405160405180910390a16002600760006101000a81548160ff02191690836002811115610f7e57fe5b02179055506000600560008473ffffffffffffffffffffffffffffffffffffffff1673ffffffffffffffffffffffffffffffffffffffff16815260200190815260200160002054141515611060576040517f08c379a00000000000000000000000000000000000000000000000000000000081526004018080602001828103825260248152602001807f5468652070617469656e74206861642067657420636f6d70656e736174696f6e81526020017f207965740000000000000000000000000000000000000000000000000000000081525060400191505060405180910390fd5b6000600660008473ffffffffffffffffffffffffffffffffffffffff1673ffffffffffffffffffffffffffffffffffffffff16815260200190815260200160002060000154905060008114151515611146576040517f08c379a00000000000000000000000000000000000000000000000000000000081526004018080602001828103825260248152602001807f5468652070617469656e74206861736e27742062757920616e7920696e73757281526020017f616e63650000000000000000000000000000000000000000000000000000000081525060400191505060405180910390fd5b600260009054906101000a900473ffffffffffffffffffffffffffffffffffffffff1673ffffffffffffffffffffffffffffffffffffffff166108fc3073ffffffffffffffffffffffffffffffffffffffff16319081150290604051600060405180830381858888f193505050501580156111c5573d6000803e3d6000fd5b506001600560008573ffffffffffffffffffffffffffffffffffffffff1673ffffffffffffffffffffffffffffffffffffffff16815260200190815260200160002081905550505050565b60007f924768e9e311ba287359b1b62edee2d2369c505f62f3c1ca774906dc0b923bb860405160405180910390a1600080905033600260006101000a81548173ffffffffffffffffffffffffffffffffffffffff021916908373ffffffffffffffffffffffffffffffffffffffff16021790555033915060008090505b6004805490508110156113eb57836004828154811015156112aa57fe5b90600052602060002090600402016000015414156113de576001915083600660003373ffffffffffffffffffffffffffffffffffffffff1673ffffffffffffffffffffffffffffffffffffffff1681526020019081526020016000206000018190555042600660003373ffffffffffffffffffffffffffffffffffffffff1673ffffffffffffffffffffffffffffffffffffffff16815260200190815260200160002060010181905550600160009054906101000a900473ffffffffffffffffffffffffffffffffffffffff1673ffffffffffffffffffffffffffffffffffffffff166108fc60048381548110151561139f57fe5b9060005260206000209060040201600201549081150290604051600060405180830381858888f193505050501580156113dc573d6000803e3d6000fd5b505b808060010191505061128d565b50600181141515611464576040517f08c379a000000000000000000000000000000000000000000000000000000000815260040180806020018281038252601f8152602001807f5468697320696e737572616e636520646f6573206e6f7420657869737465640081525060200191505060405180910390fd5b6001600760006101000a81548160ff0219169083600281111561148357fe5b021790555050919050565b600760009054906101000a900460ff1681565b60003373ffffffffffffffffffffffffffffffffffffffff16600160009054906101000a900473ffffffffffffffffffffffffffffffffffffffff1673ffffffffffffffffffffffffffffffffffffffff16141515611568576040517f08c379a000000000000000000000000000000000000000000000000000000000815260040180806020018281038252601a8152602001807f4f6e6c792073656c6c65722063616e2063616c6c20746869732e00000000000081525060200191505060405180910390fd5b61a8c0600660003373ffffffffffffffffffffffffffffffffffffffff1673ffffffffffffffffffffffffffffffffffffffff16815260200190815260200160002060010154014210151515611626576040517f08c379a000000000000000000000000000000000000000000000000000000000815260040180806020018281038252601c8152602001807f54686520696e737572616e6365206973206e6f7420657870697265640000000081525060200191505060405180910390fd5b6000600660008473ffffffffffffffffffffffffffffffffffffffff1673ffffffffffffffffffffffffffffffffffffffff168152602001908152602001600020600001819055506000600660008473ffffffffffffffffffffffffffffffffffffffff1673ffffffffffffffffffffffffffffffffffffffff1681526020019081526020016000206001018190555060019050919050565b6000806000806000905060008090505b60048054905081101561177f57856004828154811015156116ec57fe5b9060005260206000209060040201600001541415611772576001915060048181548110151561171757fe5b906000526020600020906004020160010154945060048181548110151561173a57fe5b906000526020600020906004020160020154935060048181548110151561175d57fe5b90600052602060002090600402016003015492505b80806001019150506116cf565b506001811415156117f8576040517f08c379a000000000000000000000000000000000000000000000000000000000815260040180806020018281038252601f8152602001807f5468697320696e737572616e636520646f6573206e6f7420657869737465640081525060200191505060405180910390fd5b50919390925056fea165627a7a7230582091bf77dccbb70a4c4169cfc54afc48b466da6b863fdfb1e6e74b9cbaadb4e76b0029",
  "source": "pragma solidity ^0.5.0;\r\n\r\ncontract Insurance_purchase { \r\n    uint public value;          // 赔偿金额池\r\n    \r\n    address payable public seller;      // 创建合约的就是保险公司，有且只有一个\r\n    address payable public buyer;       // 购买保险的人      \r\n    address payable public hospital;    // 医院方\r\n    \r\n    // 表明一份保险\r\n    struct Insurance {\r\n        uint insurance_id;      // 保险的ID\r\n        bytes32 insurance_name; // 保险的名字\r\n        uint purchase_amount;   // 保险的售价\r\n        uint compensation;      // 保险的赔偿金额\r\n    }    \r\n\r\n    // 表明客户购买保险的订单\r\n    struct Order {\r\n        uint insurance_id;      // 保险的ID\r\n        uint purchase_time;     // 保险的购买时间\r\n    }\r\n    \r\n    Insurance[] public insurances;  // 记录所有保险的数组\r\n    \r\n    mapping(address => uint) BuyerHealth;           // 用户所购买的保险是否已经赔付过\r\n    \r\n\r\n    mapping(address => Order) insurancesRecord;      // 用户购买的保险号\r\n    \r\n    \r\n    enum State { Created, Locked, Inactive }\r\n    State public state;\r\n    \r\n    \r\n    event Buy_insurance();\r\n    event Get_compensation();\r\n    event Release_compensation();\r\n    \r\n    constructor() public payable{\r\n        seller = msg.sender;\r\n    }\r\n    \r\n     modifier inState(State _state) {\r\n        require(\r\n            state == _state,\r\n            \"Invalid state.\"\r\n        );\r\n        _;\r\n    }\r\n    \r\n    modifier onlyBuyer(){\r\n        require(\r\n            msg.sender != seller && msg.sender != hospital,\r\n            \"Only buyer can call this.\"\r\n        );\r\n        _;\r\n    }\r\n    \r\n    modifier onlySeller(){\r\n        require(\r\n            seller == msg.sender,\r\n            \"Only seller can call this.\"\r\n        );\r\n        _;\r\n    }\r\n    \r\n    modifier onlyHospital(){\r\n        require(\r\n            msg.sender == hospital,\r\n            \"Only hospital can call this.\"\r\n        );\r\n        _;\r\n    }\r\n\r\n    function ComfirmCompany(address payable _address) public{\r\n        seller = _address;\r\n    }\r\n\r\n    \r\n    // 保险公司创建新的保险合约，保险id必须不一致\r\n    function CreateInsurance(uint _insurance_id, bytes32 _insurance_name,\r\n        uint _purchase_amount, uint _compensation)\r\n        public \r\n        onlySeller\r\n    {\r\n        for(uint i = 0; i < insurances.length; i++){\r\n            require(_insurance_id != insurances[i].insurance_id, \"The Insurance_id has existed \");\r\n        }\r\n        insurances.push(Insurance({\r\n                insurance_id: _insurance_id,\r\n                insurance_name: _insurance_name,\r\n                purchase_amount: _purchase_amount,\r\n                compensation: _compensation\r\n            }));\r\n    }\r\n    \r\n    // 保险公司确认医院账户，保险的赔付只能在特定医院执行\r\n    function ConfirmHospital(address payable _hospital)\r\n        public\r\n        onlySeller\r\n    {\r\n        hospital = _hospital;\r\n    }\r\n    \r\n    // 所有人都可以通过保险的id查询保险详情\r\n    function GetInsurance(uint _insurance_id)\r\n        public view\r\n        returns (bytes32 insurance_name, uint purchase_amount, uint compensation)\r\n    {\r\n        uint exist_insurance = 0;\r\n        for(uint i = 0; i < insurances.length; i++){\r\n            if(insurances[i].insurance_id == _insurance_id){\r\n                exist_insurance = 1;\r\n                insurance_name = insurances[i].insurance_name;\r\n                purchase_amount = insurances[i].purchase_amount;\r\n                compensation = insurances[i].compensation;\r\n            }\r\n        }\r\n        require(exist_insurance==1,\"This insurance does not existed\");\r\n    }\r\n\r\n    // 保险的限期都是一年，过期后自动销毁用户的保险约定\r\n    function ExpiredInsurance(address _buyer)\r\n    public \r\n    onlySeller\r\n    returns (bool)\r\n    {\r\n\r\n        require(now >= (insurancesRecord[msg.sender].purchase_time + 12 hours),\"The insurance is not expired\");\r\n        // 过期就删除保险记录\r\n        insurancesRecord[_buyer].insurance_id = 0;\r\n        insurancesRecord[_buyer].purchase_time = 0;\r\n        return true;\r\n    }\r\n    \r\n    // 用户通过保险的id购买保险\r\n    function BuyInsurance(uint _insurance_id)\r\n        public payable\r\n        returns (address add)\r\n    {\r\n        emit Buy_insurance();\r\n        uint exist_insurance = 0;\r\n        buyer = msg.sender;\r\n        add = msg.sender;\r\n        for(uint i = 0; i < insurances.length; i++){\r\n            if(insurances[i].insurance_id == _insurance_id){\r\n                exist_insurance = 1;\r\n                insurancesRecord[msg.sender].insurance_id = _insurance_id;\r\n                // 记录购买的时间\r\n                insurancesRecord[msg.sender].purchase_time = now;\r\n                seller.transfer(insurances[i].purchase_amount);\r\n            }\r\n        }\r\n        require(exist_insurance==1,\"This insurance does not existed\");\r\n        state = State.Locked;\r\n    }\r\n    \r\n    // 用户取消保险的购买，退款\r\n    function ReturnInsurance(uint _insurance_id)\r\n    public payable\r\n    onlyBuyer\r\n    returns (bool)\r\n    {\r\n        uint exist_insurance = insurances.length+1;\r\n        for(uint i = 0; i < insurances.length; i++){\r\n            if(insurances[i].insurance_id == _insurance_id){\r\n                exist_insurance = i;\r\n            }\r\n        }\r\n        // 判断保险是否存在\r\n        require(exist_insurance!=insurances.length+1,\"This insurance does not existed\");\r\n        // 判断用户是否已购买该保险\r\n        require(insurancesRecord[buyer].insurance_id == _insurance_id,\"The buyer didn't buy this insurance\");\r\n        if(insurancesRecord[buyer].insurance_id == _insurance_id){\r\n            insurancesRecord[msg.sender].insurance_id = 0;\r\n            buyer.transfer(insurances[exist_insurance].purchase_amount);\r\n            state = State.Inactive;\r\n            return true;\r\n        }\r\n        else{\r\n            return false;\r\n        }\r\n    }\r\n    \r\n    // 医院根据用户地址来获得保险的赔偿\r\n    function GetCompensation(address patient)\r\n        public payable\r\n        onlyHospital\r\n        inState(State.Locked)\r\n    {\r\n        emit Get_compensation();\r\n        state = State.Inactive;\r\n        require(BuyerHealth[patient] == 0, \"The patient had get compensation yet\");\r\n        uint _insurance_id = insurancesRecord[patient].insurance_id;\r\n        require(_insurance_id != 0, \"The patient hasn't buy any insurance\");\r\n        // 将合约的钱转账\r\n        buyer.transfer(address(this).balance);\r\n        BuyerHealth[patient] = 1;\r\n    }\r\n}",
  "sourcePath": "C:/Users/asus/Desktop/BlockChainApp/MyInsuranceApp/contracts/Insurance_purchase.sol",
  "compiler": {
    "name": "solc",
    "version": "0.5.0+commit.1d4f565a.Emscripten.clang"
  },
  "schemaVersion": "3.0.0",
  "updatedAt": "2018-12-30T15:22:32.457Z",
  "devdoc": {
    "methods": {}
  },
  "userdoc": {
    "methods": {}
  }
}