{
  "contractName": "Insurance_purchase",
  "abi": [
    {
      "constant": true,
      "inputs": [],
      "name": "seller",
      "outputs": [
        {
          "name": "",
          "type": "address"
        }
      ],
      "payable": false,
      "stateMutability": "view",
      "type": "function"
    },
    {
      "constant": true,
      "inputs": [],
      "name": "value",
      "outputs": [
        {
          "name": "",
          "type": "uint256"
        }
      ],
      "payable": false,
      "stateMutability": "view",
      "type": "function"
    },
    {
      "constant": true,
      "inputs": [
        {
          "name": "",
          "type": "uint256"
        }
      ],
      "name": "insurances",
      "outputs": [
        {
          "name": "insurance_id",
          "type": "uint256"
        },
        {
          "name": "insurance_name",
          "type": "bytes32"
        },
        {
          "name": "purchase_amount",
          "type": "uint256"
        },
        {
          "name": "compensation",
          "type": "uint256"
        }
      ],
      "payable": false,
      "stateMutability": "view",
      "type": "function"
    },
    {
      "constant": true,
      "inputs": [],
      "name": "buyer",
      "outputs": [
        {
          "name": "",
          "type": "address"
        }
      ],
      "payable": false,
      "stateMutability": "view",
      "type": "function"
    },
    {
      "constant": true,
      "inputs": [],
      "name": "hospital",
      "outputs": [
        {
          "name": "",
          "type": "address"
        }
      ],
      "payable": false,
      "stateMutability": "view",
      "type": "function"
    },
    {
      "constant": true,
      "inputs": [],
      "name": "state",
      "outputs": [
        {
          "name": "",
          "type": "uint8"
        }
      ],
      "payable": false,
      "stateMutability": "view",
      "type": "function"
    },
    {
      "inputs": [
        {
          "name": "_insurance_id",
          "type": "uint256[]"
        },
        {
          "name": "_insurance_name",
          "type": "bytes32[]"
        },
        {
          "name": "_purchase_amount",
          "type": "uint256[]"
        },
        {
          "name": "_compensation",
          "type": "uint256[]"
        }
      ],
      "payable": true,
      "stateMutability": "payable",
      "type": "constructor"
    },
    {
      "anonymous": false,
      "inputs": [],
      "name": "Buy_insurance",
      "type": "event"
    },
    {
      "anonymous": false,
      "inputs": [],
      "name": "Get_compensation",
      "type": "event"
    },
    {
      "anonymous": false,
      "inputs": [],
      "name": "Release_compensation",
      "type": "event"
    },
    {
      "constant": false,
      "inputs": [
        {
          "name": "_insurance_id",
          "type": "uint256"
        },
        {
          "name": "_insurance_name",
          "type": "bytes32"
        },
        {
          "name": "_purchase_amount",
          "type": "uint256"
        },
        {
          "name": "_compensation",
          "type": "uint256"
        }
      ],
      "name": "CreateInsurance",
      "outputs": [],
      "payable": false,
      "stateMutability": "nonpayable",
      "type": "function"
    },
    {
      "constant": false,
      "inputs": [
        {
          "name": "_hospital",
          "type": "address"
        }
      ],
      "name": "ConfirmHospital",
      "outputs": [],
      "payable": false,
      "stateMutability": "nonpayable",
      "type": "function"
    },
    {
      "constant": true,
      "inputs": [
        {
          "name": "_insurance_id",
          "type": "uint256"
        }
      ],
      "name": "GetInsurance",
      "outputs": [
        {
          "name": "insurance_name",
          "type": "bytes32"
        },
        {
          "name": "purchase_amount",
          "type": "uint256"
        },
        {
          "name": "compensation",
          "type": "uint256"
        }
      ],
      "payable": false,
      "stateMutability": "view",
      "type": "function"
    },
    {
      "constant": false,
      "inputs": [
        {
          "name": "_buyer",
          "type": "address"
        }
      ],
      "name": "ExpiredInsurance",
      "outputs": [
        {
          "name": "",
          "type": "bool"
        }
      ],
      "payable": false,
      "stateMutability": "nonpayable",
      "type": "function"
    },
    {
      "constant": false,
      "inputs": [
        {
          "name": "_insurance_id",
          "type": "uint256"
        }
      ],
      "name": "BuyInsurance",
      "outputs": [
        {
          "name": "add",
          "type": "address"
        }
      ],
      "payable": true,
      "stateMutability": "payable",
      "type": "function"
    },
    {
      "constant": false,
      "inputs": [
        {
          "name": "_insurance_id",
          "type": "uint256"
        }
      ],
      "name": "ReturnInsurance",
      "outputs": [
        {
          "name": "",
          "type": "bool"
        }
      ],
      "payable": true,
      "stateMutability": "payable",
      "type": "function"
    },
    {
      "constant": false,
      "inputs": [
        {
          "name": "patient",
          "type": "address"
        }
      ],
      "name": "GetCompensation",
      "outputs": [],
      "payable": true,
      "stateMutability": "payable",
      "type": "function"
    }
  ],
  "bytecode": "0x608060405260405162001c4e38038062001c4e833981018060405260808110156200002957600080fd5b8101908080516401000000008111156200004257600080fd5b828101905060208101848111156200005957600080fd5b81518560208202830111640100000000821117156200007757600080fd5b505092919060200180516401000000008111156200009457600080fd5b82810190506020810184811115620000ab57600080fd5b8151856020820283011164010000000082111715620000c957600080fd5b50509291906020018051640100000000811115620000e657600080fd5b82810190506020810184811115620000fd57600080fd5b81518560208202830111640100000000821117156200011b57600080fd5b505092919060200180516401000000008111156200013857600080fd5b828101905060208101848111156200014f57600080fd5b81518560208202830111640100000000821117156200016d57600080fd5b505092919050505033600160006101000a81548173ffffffffffffffffffffffffffffffffffffffff021916908373ffffffffffffffffffffffffffffffffffffffff1602179055508251845114151562000230576040517f08c379a00000000000000000000000000000000000000000000000000000000081526004018080602001828103825260198152602001807f4c656e677468206d75737420626520636f6e73697374656e740000000000000081525060200191505060405180910390fd5b82518251141515620002aa576040517f08c379a00000000000000000000000000000000000000000000000000000000081526004018080602001828103825260198152602001807f4c656e677468206d75737420626520636f6e73697374656e740000000000000081525060200191505060405180910390fd5b8051825114151562000324576040517f08c379a00000000000000000000000000000000000000000000000000000000081526004018080602001828103825260198152602001807f4c656e677468206d75737420626520636f6e73697374656e740000000000000081525060200191505060405180910390fd5b60008090505b84518110156200041c57600460806040519081016040528087848151811015156200035157fe5b90602001906020020151815260200186848151811015156200036f57fe5b90602001906020020151815260200185848151811015156200038d57fe5b9060200190602002015181526020018484815181101515620003ab57fe5b90602001906020020151815250908060018154018082558091505090600182039060005260206000209060040201600090919290919091506000820151816000015560208201518160010155604082015181600201556060820151816003015550505080806001019150506200032a565b506002348115156200042a57fe5b0460008190555034600054600202141515620004ae576040517f08c379a00000000000000000000000000000000000000000000000000000000081526004018080602001828103825260158152602001807f56616c75652068617320746f206265206576656e2e000000000000000000000081525060200191505060405180910390fd5b5050505061178c80620004c26000396000f3fe6080604052600436106100c5576000357c0100000000000000000000000000000000000000000000000000000000900463ffffffff16806308551a53146100ca5780633fa4f245146101215780634d3e34611461014c5780635822edd91461019257806359fb49f9146101e35780635f7fe488146102475780637150d8ae146102a0578063aa2fedde146102f7578063b5ac28531461034e578063ba6898a214610392578063c19d93fb14610400578063cea54bfa14610439578063ff553e81146104a2575b600080fd5b3480156100d657600080fd5b506100df6104ff565b604051808273ffffffffffffffffffffffffffffffffffffffff1673ffffffffffffffffffffffffffffffffffffffff16815260200191505060405180910390f35b34801561012d57600080fd5b50610136610525565b6040518082815260200191505060405180910390f35b6101786004803603602081101561016257600080fd5b810190808035906020019092919050505061052b565b604051808215151515815260200191505060405180910390f35b34801561019e57600080fd5b506101e1600480360360208110156101b557600080fd5b81019080803573ffffffffffffffffffffffffffffffffffffffff16906020019092919050505061099e565b005b3480156101ef57600080fd5b5061021c6004803603602081101561020657600080fd5b8101908080359060200190929190505050610aa7565b6040518085815260200184815260200183815260200182815260200194505050505060405180910390f35b34801561025357600080fd5b5061029e6004803603608081101561026a57600080fd5b8101908080359060200190929190803590602001909291908035906020019092919080359060200190929190505050610ae6565b005b3480156102ac57600080fd5b506102b5610ce4565b604051808273ffffffffffffffffffffffffffffffffffffffff1673ffffffffffffffffffffffffffffffffffffffff16815260200191505060405180910390f35b34801561030357600080fd5b5061030c610d0a565b604051808273ffffffffffffffffffffffffffffffffffffffff1673ffffffffffffffffffffffffffffffffffffffff16815260200191505060405180910390f35b6103906004803603602081101561036457600080fd5b81019080803573ffffffffffffffffffffffffffffffffffffffff169060200190929190505050610d30565b005b6103be600480360360208110156103a857600080fd5b8101908080359060200190929190505050611170565b604051808273ffffffffffffffffffffffffffffffffffffffff1673ffffffffffffffffffffffffffffffffffffffff16815260200191505060405180910390f35b34801561040c57600080fd5b506104156113ee565b6040518082600281111561042557fe5b60ff16815260200191505060405180910390f35b34801561044557600080fd5b506104886004803603602081101561045c57600080fd5b81019080803573ffffffffffffffffffffffffffffffffffffffff169060200190929190505050611401565b604051808215151515815260200191505060405180910390f35b3480156104ae57600080fd5b506104db600480360360208110156104c557600080fd5b810190808035906020019092919050505061161f565b60405180848152602001838152602001828152602001935050505060405180910390f35b600160009054906101000a900473ffffffffffffffffffffffffffffffffffffffff1681565b60005481565b6000600160009054906101000a900473ffffffffffffffffffffffffffffffffffffffff1673ffffffffffffffffffffffffffffffffffffffff163373ffffffffffffffffffffffffffffffffffffffff16141580156105d95750600360009054906101000a900473ffffffffffffffffffffffffffffffffffffffff1673ffffffffffffffffffffffffffffffffffffffff163373ffffffffffffffffffffffffffffffffffffffff1614155b151561064d576040517f08c379a00000000000000000000000000000000000000000000000000000000081526004018080602001828103825260198152602001807f4f6e6c792062757965722063616e2063616c6c20746869732e0000000000000081525060200191505060405180910390fd5b6000600160048054905001905060008090505b6004805490508110156106a6578360048281548110151561067d57fe5b9060005260206000209060040201600001541415610699578091505b8080600101915050610660565b506001600480549050018114151515610727576040517f08c379a000000000000000000000000000000000000000000000000000000000815260040180806020018281038252601f8152602001807f5468697320696e737572616e636520646f6573206e6f7420657869737465640081525060200191505060405180910390fd5b8260066000600260009054906101000a900473ffffffffffffffffffffffffffffffffffffffff1673ffffffffffffffffffffffffffffffffffffffff1673ffffffffffffffffffffffffffffffffffffffff16815260200190815260200160002060000154141515610828576040517f08c379a00000000000000000000000000000000000000000000000000000000081526004018080602001828103825260238152602001807f546865206275796572206469646e277420627579207468697320696e7375726181526020017f6e6365000000000000000000000000000000000000000000000000000000000081525060400191505060405180910390fd5b8260066000600260009054906101000a900473ffffffffffffffffffffffffffffffffffffffff1673ffffffffffffffffffffffffffffffffffffffff1673ffffffffffffffffffffffffffffffffffffffff168152602001908152602001600020600001541415610993576000600660003373ffffffffffffffffffffffffffffffffffffffff1673ffffffffffffffffffffffffffffffffffffffff16815260200190815260200160002060000181905550600260009054906101000a900473ffffffffffffffffffffffffffffffffffffffff1673ffffffffffffffffffffffffffffffffffffffff166108fc60048381548110151561092757fe5b9060005260206000209060040201600201549081150290604051600060405180830381858888f19350505050158015610964573d6000803e3d6000fd5b506002600760006101000a81548160ff0219169083600281111561098457fe5b02179055506001915050610999565b60009150505b919050565b3373ffffffffffffffffffffffffffffffffffffffff16600160009054906101000a900473ffffffffffffffffffffffffffffffffffffffff1673ffffffffffffffffffffffffffffffffffffffff16141515610a63576040517f08c379a000000000000000000000000000000000000000000000000000000000815260040180806020018281038252601a8152602001807f4f6e6c792073656c6c65722063616e2063616c6c20746869732e00000000000081525060200191505060405180910390fd5b80600360006101000a81548173ffffffffffffffffffffffffffffffffffffffff021916908373ffffffffffffffffffffffffffffffffffffffff16021790555050565b600481815481101515610ab657fe5b90600052602060002090600402016000915090508060000154908060010154908060020154908060030154905084565b3373ffffffffffffffffffffffffffffffffffffffff16600160009054906101000a900473ffffffffffffffffffffffffffffffffffffffff1673ffffffffffffffffffffffffffffffffffffffff16141515610bab576040517f08c379a000000000000000000000000000000000000000000000000000000000815260040180806020018281038252601a8152602001807f4f6e6c792073656c6c65722063616e2063616c6c20746869732e00000000000081525060200191505060405180910390fd5b60008090505b600480549050811015610c6357600481815481101515610bcd57fe5b9060005260206000209060040201600001548514151515610c56576040517f08c379a000000000000000000000000000000000000000000000000000000000815260040180806020018281038252601d8152602001807f54686520496e737572616e63655f69642068617320657869737465642000000081525060200191505060405180910390fd5b8080600101915050610bb1565b50600460806040519081016040528086815260200185815260200184815260200183815250908060018154018082558091505090600182039060005260206000209060040201600090919290919091506000820151816000015560208201518160010155604082015181600201556060820151816003015550505050505050565b600260009054906101000a900473ffffffffffffffffffffffffffffffffffffffff1681565b600360009054906101000a900473ffffffffffffffffffffffffffffffffffffffff1681565b600360009054906101000a900473ffffffffffffffffffffffffffffffffffffffff1673ffffffffffffffffffffffffffffffffffffffff163373ffffffffffffffffffffffffffffffffffffffff16141515610df5576040517f08c379a000000000000000000000000000000000000000000000000000000000815260040180806020018281038252601c8152602001807f4f6e6c7920686f73706974616c2063616e2063616c6c20746869732e0000000081525060200191505060405180910390fd5b6001806002811115610e0357fe5b600760009054906101000a900460ff166002811115610e1e57fe5b141515610e93576040517f08c379a000000000000000000000000000000000000000000000000000000000815260040180806020018281038252600e8152602001807f496e76616c69642073746174652e00000000000000000000000000000000000081525060200191505060405180910390fd5b7f1248208164c93ff473e341ba4e02abaaa336d70aede2090fb8066061e73a6b8160405160405180910390a16002600760006101000a81548160ff02191690836002811115610ede57fe5b02179055506000600560008473ffffffffffffffffffffffffffffffffffffffff1673ffffffffffffffffffffffffffffffffffffffff16815260200190815260200160002054141515610fc0576040517f08c379a00000000000000000000000000000000000000000000000000000000081526004018080602001828103825260248152602001807f5468652070617469656e74206861642067657420636f6d70656e736174696f6e81526020017f207965740000000000000000000000000000000000000000000000000000000081525060400191505060405180910390fd5b6000600660008473ffffffffffffffffffffffffffffffffffffffff1673ffffffffffffffffffffffffffffffffffffffff168152602001908152602001600020600001549050600081141515156110a6576040517f08c379a00000000000000000000000000000000000000000000000000000000081526004018080602001828103825260248152602001807f5468652070617469656e74206861736e27742062757920616e7920696e73757281526020017f616e63650000000000000000000000000000000000000000000000000000000081525060400191505060405180910390fd5b600260009054906101000a900473ffffffffffffffffffffffffffffffffffffffff1673ffffffffffffffffffffffffffffffffffffffff166108fc3073ffffffffffffffffffffffffffffffffffffffff16319081150290604051600060405180830381858888f19350505050158015611125573d6000803e3d6000fd5b506001600560008573ffffffffffffffffffffffffffffffffffffffff1673ffffffffffffffffffffffffffffffffffffffff16815260200190815260200160002081905550505050565b60007f924768e9e311ba287359b1b62edee2d2369c505f62f3c1ca774906dc0b923bb860405160405180910390a1600080905033600260006101000a81548173ffffffffffffffffffffffffffffffffffffffff021916908373ffffffffffffffffffffffffffffffffffffffff16021790555033915060008090505b60048054905081101561134b578360048281548110151561120a57fe5b906000526020600020906004020160000154141561133e576001915083600660003373ffffffffffffffffffffffffffffffffffffffff1673ffffffffffffffffffffffffffffffffffffffff1681526020019081526020016000206000018190555042600660003373ffffffffffffffffffffffffffffffffffffffff1673ffffffffffffffffffffffffffffffffffffffff16815260200190815260200160002060010181905550600160009054906101000a900473ffffffffffffffffffffffffffffffffffffffff1673ffffffffffffffffffffffffffffffffffffffff166108fc6004838154811015156112ff57fe5b9060005260206000209060040201600201549081150290604051600060405180830381858888f1935050505015801561133c573d6000803e3d6000fd5b505b80806001019150506111ed565b506001811415156113c4576040517f08c379a000000000000000000000000000000000000000000000000000000000815260040180806020018281038252601f8152602001807f5468697320696e737572616e636520646f6573206e6f7420657869737465640081525060200191505060405180910390fd5b6001600760006101000a81548160ff021916908360028111156113e357fe5b021790555050919050565b600760009054906101000a900460ff1681565b60003373ffffffffffffffffffffffffffffffffffffffff16600160009054906101000a900473ffffffffffffffffffffffffffffffffffffffff1673ffffffffffffffffffffffffffffffffffffffff161415156114c8576040517f08c379a000000000000000000000000000000000000000000000000000000000815260040180806020018281038252601a8152602001807f4f6e6c792073656c6c65722063616e2063616c6c20746869732e00000000000081525060200191505060405180910390fd5b61a8c0600660003373ffffffffffffffffffffffffffffffffffffffff1673ffffffffffffffffffffffffffffffffffffffff16815260200190815260200160002060010154014210151515611586576040517f08c379a000000000000000000000000000000000000000000000000000000000815260040180806020018281038252601c8152602001807f54686520696e737572616e6365206973206e6f7420657870697265640000000081525060200191505060405180910390fd5b6000600660008473ffffffffffffffffffffffffffffffffffffffff1673ffffffffffffffffffffffffffffffffffffffff168152602001908152602001600020600001819055506000600660008473ffffffffffffffffffffffffffffffffffffffff1673ffffffffffffffffffffffffffffffffffffffff1681526020019081526020016000206001018190555060019050919050565b6000806000806000905060008090505b6004805490508110156116df578560048281548110151561164c57fe5b90600052602060002090600402016000015414156116d2576001915060048181548110151561167757fe5b906000526020600020906004020160010154945060048181548110151561169a57fe5b90600052602060002090600402016002015493506004818154811015156116bd57fe5b90600052602060002090600402016003015492505b808060010191505061162f565b50600181141515611758576040517f08c379a000000000000000000000000000000000000000000000000000000000815260040180806020018281038252601f8152602001807f5468697320696e737572616e636520646f6573206e6f7420657869737465640081525060200191505060405180910390fd5b50919390925056fea165627a7a72305820d54e38742d12f4e838c02ce7a7c78b0f09ef6de2a52458df5ed0950b482f987c0029",
  "source": "pragma solidity ^0.5.0;\r\n\r\ncontract Insurance_purchase { \r\n    uint public value;          // 赔偿金额池\r\n    \r\n    address payable public seller;      // 创建合约的就是保险公司，有且只有一个\r\n    address payable public buyer;       // 购买保险的人      \r\n    address payable public hospital;    // 医院方\r\n    \r\n    // 表明一份保险\r\n    struct Insurance {\r\n        uint insurance_id;      // 保险的ID\r\n        bytes32 insurance_name; // 保险的名字\r\n        uint purchase_amount;   // 保险的售价\r\n        uint compensation;      // 保险的赔偿金额\r\n    }    \r\n\r\n    // 表明客户购买保险的订单\r\n    struct Order {\r\n        uint insurance_id;      // 保险的ID\r\n        uint purchase_time;     // 保险的购买时间\r\n    }\r\n    \r\n    Insurance[] public insurances;  // 记录所有保险的数组\r\n    \r\n    mapping(address => uint) BuyerHealth;           // 用户所购买的保险是否已经赔付过\r\n    \r\n\r\n    mapping(address => Order) insurancesRecord;      // 用户购买的保险号\r\n    \r\n    \r\n    enum State { Created, Locked, Inactive }\r\n    State public state;\r\n    \r\n    \r\n    event Buy_insurance();\r\n    event Get_compensation();\r\n    event Release_compensation();\r\n    \r\n    constructor(\r\n        uint[] memory _insurance_id, \r\n        bytes32[] memory _insurance_name, \r\n        uint[] memory _purchase_amount, \r\n        uint[] memory _compensation\r\n        ) public payable{\r\n        seller = msg.sender;\r\n        require(_insurance_id.length == _insurance_name.length, \"Length must be consistent\");\r\n        require(_purchase_amount.length == _insurance_name.length, \"Length must be consistent\");\r\n        require( _purchase_amount.length == _compensation.length, \"Length must be consistent\");\r\n        for (uint i = 0; i < _insurance_id.length; i++) {\r\n            insurances.push(Insurance({\r\n                insurance_id: _insurance_id[i],\r\n                insurance_name: _insurance_name[i],\r\n                purchase_amount: _purchase_amount[i],\r\n                compensation: _compensation[i]\r\n            }));\r\n        }\r\n        value = msg.value / 2;\r\n        require((2 * value) == msg.value, \"Value has to be even.\");\r\n    }\r\n    \r\n     modifier inState(State _state) {\r\n        require(\r\n            state == _state,\r\n            \"Invalid state.\"\r\n        );\r\n        _;\r\n    }\r\n    \r\n    modifier onlyBuyer(){\r\n        require(\r\n            msg.sender != seller && msg.sender != hospital,\r\n            \"Only buyer can call this.\"\r\n        );\r\n        _;\r\n    }\r\n    \r\n    modifier onlySeller(){\r\n        require(\r\n            seller == msg.sender,\r\n            \"Only seller can call this.\"\r\n        );\r\n        _;\r\n    }\r\n    \r\n    modifier onlyHospital(){\r\n        require(\r\n            msg.sender == hospital,\r\n            \"Only hospital can call this.\"\r\n        );\r\n        _;\r\n    }\r\n    \r\n    // 保险公司创建新的保险合约，保险id必须不一致\r\n    function CreateInsurance(uint _insurance_id, bytes32 _insurance_name,\r\n        uint _purchase_amount, uint _compensation)\r\n        public \r\n        onlySeller\r\n    {\r\n        for(uint i = 0; i < insurances.length; i++){\r\n            require(_insurance_id != insurances[i].insurance_id, \"The Insurance_id has existed \");\r\n        }\r\n        insurances.push(Insurance({\r\n                insurance_id: _insurance_id,\r\n                insurance_name: _insurance_name,\r\n                purchase_amount: _purchase_amount,\r\n                compensation: _compensation\r\n            }));\r\n    }\r\n    \r\n    // 保险公司确认医院账户，保险的赔付只能在特定医院执行\r\n    function ConfirmHospital(address payable _hospital)\r\n        public\r\n        onlySeller\r\n    {\r\n        hospital = _hospital;\r\n    }\r\n    \r\n    // 所有人都可以通过保险的id查询保险详情\r\n    function GetInsurance(uint _insurance_id)\r\n        public view\r\n        returns (bytes32 insurance_name, uint purchase_amount, uint compensation)\r\n    {\r\n        uint exist_insurance = 0;\r\n        for(uint i = 0; i < insurances.length; i++){\r\n            if(insurances[i].insurance_id == _insurance_id){\r\n                exist_insurance = 1;\r\n                insurance_name = insurances[i].insurance_name;\r\n                purchase_amount = insurances[i].purchase_amount;\r\n                compensation = insurances[i].compensation;\r\n            }\r\n        }\r\n        require(exist_insurance==1,\"This insurance does not existed\");\r\n    }\r\n\r\n    // 保险的限期都是一年，过期后自动销毁用户的保险约定\r\n    function ExpiredInsurance(address _buyer)\r\n    public \r\n    onlySeller\r\n    returns (bool)\r\n    {\r\n\r\n        require(now >= (insurancesRecord[msg.sender].purchase_time + 12 hours),\"The insurance is not expired\");\r\n        // 过期就删除保险记录\r\n        insurancesRecord[_buyer].insurance_id = 0;\r\n        insurancesRecord[_buyer].purchase_time = 0;\r\n        return true;\r\n    }\r\n    \r\n    // 用户通过保险的id购买保险\r\n    function BuyInsurance(uint _insurance_id)\r\n        public payable\r\n        returns (address add)\r\n    {\r\n        emit Buy_insurance();\r\n        uint exist_insurance = 0;\r\n        buyer = msg.sender;\r\n        add = msg.sender;\r\n        for(uint i = 0; i < insurances.length; i++){\r\n            if(insurances[i].insurance_id == _insurance_id){\r\n                exist_insurance = 1;\r\n                insurancesRecord[msg.sender].insurance_id = _insurance_id;\r\n                // 记录购买的时间\r\n                insurancesRecord[msg.sender].purchase_time = now;\r\n                seller.transfer(insurances[i].purchase_amount);\r\n            }\r\n        }\r\n        require(exist_insurance==1,\"This insurance does not existed\");\r\n        state = State.Locked;\r\n    }\r\n    \r\n    // 用户取消保险的购买，退款\r\n    function ReturnInsurance(uint _insurance_id)\r\n    public payable\r\n    onlyBuyer\r\n    returns (bool)\r\n    {\r\n        uint exist_insurance = insurances.length+1;\r\n        for(uint i = 0; i < insurances.length; i++){\r\n            if(insurances[i].insurance_id == _insurance_id){\r\n                exist_insurance = i;\r\n            }\r\n        }\r\n        // 判断保险是否存在\r\n        require(exist_insurance!=insurances.length+1,\"This insurance does not existed\");\r\n        // 判断用户是否已购买该保险\r\n        require(insurancesRecord[buyer].insurance_id == _insurance_id,\"The buyer didn't buy this insurance\");\r\n        if(insurancesRecord[buyer].insurance_id == _insurance_id){\r\n            insurancesRecord[msg.sender].insurance_id = 0;\r\n            buyer.transfer(insurances[exist_insurance].purchase_amount);\r\n            state = State.Inactive;\r\n            return true;\r\n        }\r\n        else{\r\n            return false;\r\n        }\r\n    }\r\n    \r\n    // 医院根据用户地址来获得保险的赔偿\r\n    function GetCompensation(address patient)\r\n        public payable\r\n        onlyHospital\r\n        inState(State.Locked)\r\n    {\r\n        emit Get_compensation();\r\n        state = State.Inactive;\r\n        require(BuyerHealth[patient] == 0, \"The patient had get compensation yet\");\r\n        uint _insurance_id = insurancesRecord[patient].insurance_id;\r\n        require(_insurance_id != 0, \"The patient hasn't buy any insurance\");\r\n        // 将合约的钱转账\r\n        buyer.transfer(address(this).balance);\r\n        BuyerHealth[patient] = 1;\r\n    }\r\n}",
  "sourcePath": "C:/Users/asus/Desktop/BlockChainApp/MyInsuranceApp/contracts/Insurance.sol",
  "compiler": {
    "name": "solc",
    "version": "0.5.0+commit.1d4f565a.Emscripten.clang"
  },
  "schemaVersion": "3.0.0",
  "updatedAt": "2018-12-28T07:38:25.753Z",
  "devdoc": {
    "methods": {}
  },
  "userdoc": {
    "methods": {}
  }
}