{
  "contractName": "Test",
  "abi": [
    {
      "constant": true,
      "inputs": [
        {
          "name": "a",
          "type": "uint256"
        }
      ],
      "name": "multiply",
      "outputs": [
        {
          "name": "d",
          "type": "uint256"
        }
      ],
      "payable": false,
      "stateMutability": "pure",
      "type": "function",
      "signature": "0xc6888fa1"
    }
  ],
  "bytecode": "0x608060405234801561001057600080fd5b5060c88061001f6000396000f3fe608060405260043610603f576000357c0100000000000000000000000000000000000000000000000000000000900463ffffffff168063c6888fa1146044575b600080fd5b348015604f57600080fd5b50607960048036036020811015606457600080fd5b8101908080359060200190929190505050608f565b6040518082815260200191505060405180910390f35b600060078202905091905056fea165627a7a72305820b7bd439e05520aece0bc4257550ce254b32264af8cdd1e402f3686c1461cc9fd0029",
  "source": "pragma solidity ^0.5.0;\r\n\r\ncontract Test { \r\n    function multiply(uint a) public pure returns(uint d) { \r\n        return a * 7; \r\n    }\r\n}",
  "sourcePath": "C:/Users/asus/Desktop/dapp/contracts/MetaCoin.sol",
  "compiler": {
    "name": "solc",
    "version": "0.5.0+commit.1d4f565a.Emscripten.clang"
  },
  "schemaVersion": "3.0.0",
  "updatedAt": "2018-12-26T07:20:25.241Z",
  "devdoc": {
    "methods": {}
  },
  "userdoc": {
    "methods": {}
  }
}